:020000040800F2
:1080000038070020B581000885950008E593000831
:1080100081950008BD820008A995000800000000B5
:108020000000000000000000000000008D95000826
:10803000C1820008000000008995000891950008A1
:10804000CF810008CF810008CF810008CF810008D0
:10805000CF810008CF810008CF810008CF810008C0
:10806000CF810008CF810008CF810008CF810008B0
:10807000CF810008CF810008CF810008CF810008A0
:10808000CF810008CF810008CF810008CF81000890
:10809000CF810008CF810008CF810008CF81000880
:1080A000CF810008CF810008CF810008CF81000870
:1080B000CF810008CF810008CF810008CF81000860
:1080C000CF810008CF810008CF810008CF81000850
:1080D000CF810008CF810008CF810008CF81000840
:1080E000CF810008CF810008CF81000800F002F89E
:1080F00000F050F814A696E8000CB244B344DA45F8
:1081000001D100F047F8BAE80F000FA696E830005A
:10811000A5EB040504EB0607AAEB0704A7F101078A
:108120004FEA15154FEA3414A4F10104AC4201D30F
:1081300000F030F813F0010F18BFFB1A43F00103F1
:1081400000F001F8DBE71847D8200000F820000015
:10815000103A24BF78C878C1FAD8520724BF30C873
:1081600030C144BF04680C607047000070470000D5
:108170000023002400250026103A28BF78C1FBD830
:10818000520728BF30C148BF0B6070471FB51FBDE5
:1081900010B510BD00F058F81146FFF7F7FF01F0D9
:1081A000E9FC00F076F803B4FFF7F2FF03BC00F03F
:1081B0007DF800000948804709480047FEE7FEE7D0
:1081C000FEE7FEE7FEE7FEE7FEE7FEE7FEE7FEE787
:1081D00004480549054A064B70470000959500087C
:1081E000ED80000838010020380700203803002007
:1081F000380300204FF0000200B51346944696461F
:10820000203922BFA0E80C50A0E80C50B1F12001A9
:10821000BFF4F7AF090728BFA0E80C5048BF0CC057
:108220005DF804EB890028BF40F8042B08BF7047B5
:1082300048BF20F8022B11F0804F18BF00F8012B27
:108240007047704770477047754600F02BF8AE4690
:1082500005006946534620F00700854618B020B552
:10826000FFF7B6FFBDE820404FF000064FF00007D3
:108270004FF000084FF0000BAC46ACE8C009ACE88A
:10828000C009ACE8C009ACE8C00921F007018D467F
:10829000704710B50446AFF300802046BDE810409B
:1082A000FFF781BF004870472000002001491820D7
:1082B000ABBEFEE72600020070470000FEE70000AC
:1082C00070470000EFF3108072B600BFFEE70000B9
:1082D000B0B5044600F01EF9054640F20000C2F2B7
:1082E00000000078611C18BF044400BF00F012F9C0
:1082F000401BA042FAD3B0BD2DE9F04F82B00E680A
:10830000002E00F0FD8041F20042C4F2010204237D
:1083100040F2004E904208BF03234FF6FF7CC4F2A8
:10832000010E009300240123C1F2100C4FF0000A4B
:108330004FF000094BE000BF41F20002C4F201021D
:10834000009F904208BF022704F00C030F229A40BE
:108350002BEA020207FA03F34FEA9A051A4346F89A
:1083600025204E6840F20C45F202DEF8082054BF8A
:1083700022EA080242EA0802C4F20105CEF8082007
:108380002A68B30254BF22EA080242EA08022A60BD
:10839000B303DEF8042054BF22EA080242EA0802CE
:1083A000F303CEF80420DEF800204FF0010354BFA1
:1083B00022EA080242EA0802CEF800200E680AF11A
:1083C000010A36FA0AF204F1040400F0998003FA73
:1083D0000AFB16EA0B08F1D04E68664512DC122E35
:1083E00056D8DFE806F0350B4D49555555555555CE
:1083F0005555555555555545510000BFD1F80C9070
:1084000046E000BF4FF6FF72C1F2210296420FDC38
:108410000022C1F2110296421AD00022C1F21202C9
:10842000964215D00022C1F22102964210D02FE0D0
:108430000022C1F2220296420AD00022C1F2310289
:10844000964205D00022C1F23202964220D100BFEE
:108450008A684AB1012A14BFC0F814B0C0F810B03D
:108460004FF0080914E000BF4FF0040910E000BF0E
:10847000CA6802F104090BE04FF0000908E000BFF0
:10848000CA6802F1080903E0CA6802F10C0900BFDA
:1084900002462646B8F5807F24BF0432203E176886
:1084A0000F25B54027EA050509FA06F6354315609C
:1084B000CA79D2067FF582AF41F21803C4F20203F3
:1084C0001A68AEF57E7642F001021A601A6802F070
:1084D00001020192019A2AF0030256F802B040F616
:1084E0000002C4F20102904208D040F60042C4F2F9
:1084F000010290427FF420AF012725E7002723E700
:1085000002B0BDE8F08F0000002A08BF0904016135
:108510007047000040F23010C2F20000006870475F
:1085200040F2000040F23011C2F20000C2F200013D
:1085300000780A68104408607047000080B542F275
:108540000000C4F20200016841F010010160032044
:1085500000F07AF80F2000F005F800F027F800206E
:1085600080BD000070B540F20006C2F2000640F285
:1085700008013278C2F200014FF47A730968B3FB44
:10858000F2F20446B1FBF2F1084600F073FB0F2C47
:108590004FF0010508D838B94FF0FF3021460022CE
:1085A000002500F025F87460284670BD82B041F2C5
:1085B0001800C4F202000168022241F001010160CA
:1085C000016801F0010101910199416841F0805178
:1085D0004160406800F08050009000980420C4F290
:1085E0000100016862F31A61016002B07047000087
:1085F00010B54EF60C5CCEF2000CDCF80030C3F384
:10860000022E8EF00704042C28BF0424BEF10303BD
:108610004FF0FF3E0EFA04F438BF0023A143994007
:108620000EFA03F39A43114300F00F0200F1604386
:108630000901043A03F564436244002848BF02F18B
:108640000C03197010BD00004EF60C51CEF2000163
:108650000A684FF6FF031A4060F30A2242F0806076
:1086600040F0FD7008607047002804BF012070478B
:108670002DE9F04381B042F20008C4F2020804463A
:10868000D8F800000D4600F0070088420CD2D8F858
:10869000000020F007002843C8F80000D8F80000C8
:1086A00000F00700A8426CD1206841F2040981075C
:1086B000C4F2020917D5410705D5D9F8001041F4D5
:1086C000E061C9F80010010705D5D9F8001041F4A0
:1086D0006051C9F80010D9F80010A26821F0F0012B
:1086E0001143C9F80010C00742D1D8F8000000F0CB
:1086F0000700A8420CD9D8F8000020F00700284352
:10870000C8F80000D8F8000000F00700A84238D1EF
:108710002068410707D5D9F80010E26821F4E0612C
:108720001143C9F80010000708D5D9F800002169E5
:1087300020F4605040EAC100C9F80000D9F80020D8
:1087400002F00C00082841F20020C0F27A004DD15E
:108750004AF20E23C2F38341C0F60003595CD203F0
:1087600038D440F60010C0F23D0048433EE000BF60
:10877000606859F8041C022808D0012826D1890312
:1087800006D4012001B0BDE8F08300BF8901F8D50F
:10879000D9F8001021F003010843C9F80000FFF7E1
:1087A000B9FE064641F28837D9F80000616800F04A
:1087B0000C00B0EB810F98D0FFF7ACFE801BB842E5
:1087C000F2D9032001B0BDE8F08300BF8907D8D5F6
:1087D000DEE700BFD9F800204AF20C23C2F3404282
:1087E000C0F600039A5C4843B0FBF2F0D9F80010E1
:1087F0004AF2F412C1F30311C0F60002515C40F2D8
:10880000080220FA01F140F20400C2F20000006800
:10881000C2F200021160FFF7A5FE002001B0BDE822
:10882000F083000040F2080041F20401C2F20000AF
:10883000C4F20201006809684AF20422C1F302216D
:10884000C0F60002515CC8407047000040F20800CA
:1088500041F20401C2F20000C4F20201006809689A
:108860004AF20422C1F3C221C0F60002515CC840A2
:1088700070470000002804BF012070472DE9F04137
:1088800082B00446007841F20006C007C4F2020636
:108890000CD0706800F00C00042840F08180306833
:1088A000800303D56068002800F0468120788007A7
:1088B0001BD5706810F00C0F09D0706800F00C0028
:1088C000082840F087807068C00300F1838030681A
:1088D000800703D52069012840F02E813068616946
:1088E00020F0F80040EAC10030602078000713D47F
:1088F000207840072CD4E569002D00F018817068BD
:1089000000F00C00082840F0A780012D40F0048101
:10891000012002B0BDE8F081A069002800F0848049
:108920000020C4F242200121C0F88014FFF7F2FDBC
:10893000054600BF706A800700F1B280FFF7EAFDCC
:10894000401B0228F6D9032002B0BDE8F08100BF29
:10895000F0695FEAC00808D4F06940F08050F06127
:10896000F06900F080500090009847F20007C4F2D0
:1089700000073868C00549D4386840F48070386012
:10898000FFF7C8FD054600BF3868C0053ED4FFF7B5
:10899000C1FD401B6428F7D9032002B0BDE8F08177
:1089A000706800F00C00082803D17068C0033FF520
:1089B00076AF61683068002900F00C81B1F5A02F16
:1089C00000F00081B1F5803F40F01A8140F4803022
:1089D0001CE100BF2069002840F20000C4F24220E0
:1089E00000F0888001210160FFF794FD054600BF7B
:1089F000306880073FF572AFFFF78CFD401B0228FF
:108A0000F6D9032002B0BDE8F08100BFE168306A0A
:108A1000002900F09D80052900F09280012940F096
:108A2000AF8040F00100B1E00020C4F242200021FC
:108A3000C0F88014FFF76EFD054600BF706A80071E
:108A40007FF556AFFFF766FD401B0228F6D90320DD
:108A500002B0BDE8F08100BF0027C4F24227002029
:108A60003866FFF757FD022D05460DD130688001AD
:108A700040F1DE80FFF74EFD401B02284FF003005F
:108A8000F4D902B0BDE8F081306880014FD5FFF71E
:108A900041FD401B02284FF00300F5D9F1E700BF6C
:108AA00040F20800C2F20000006844F6D351C1F25F
:108AB0006201A0FB0101480A019000BF00BF0198BC
:108AC000411E002801913FF413AF00BF0198411EE1
:108AD000002801913FF40CAF00BF0198411E00280F
:108AE00001913FF405AF00BF0198411E002801919C
:108AF000E4D1FDE600210160FFF70CFD054600BF53
:108B0000306880077FF5F1AEFFF704FD401B0228B7
:108B10004FF00300F4D9B4E77068216A00F48032A2
:108B20008A4209D1616A00F47010884204D10020A1
:108B300002B0BDE8F08100BF012002B0BDE8F081C5
:108B400040F004003062306A40F001001EE000BFD7
:108B500020F001003062306A20F004003062FFF73C
:108B6000D9FC054641F28837306A800720D5FFF7E7
:108B7000D1FC401BB8424FF00300F5D981E700BF9C
:108B800020F001003062306A20F004003062FFF70C
:108B9000C1FC054641F28837306A800708D4FFF7E8
:108BA000B9FC401BB842F7D9032002B0BDE8F08100
:108BB000B8F1000F3FF59FAEF06920F08050F061F2
:108BC00099E600BF40F480203060306840F4803087
:108BD0001CE000BF20F480303060306820F480203A
:108BE0003060FFF797FC0546306880037FF55EAE86
:108BF000FFF790FC401B64284FF00300F4D940E7D6
:108C000020F480303060306820F480203060FFF73E
:108C100081FC0546306880033FF548AEFFF77AFCDB
:108C2000401B6428F6D9032002B0BDE8F08100BFE4
:108C3000206AB0F5803F05D17168A26821F4003147
:108C4000114371607168626A21F474111143084321
:108C5000706001203866FFF75DFC044630688001D3
:108C60003FF565AFFFF756FC001B02284FF00300ED
:108C7000F4D906E7411E0020B0EB116F1CBF0120A4
:108C800070474EF21002CEF2000251604EF62351B0
:108C9000CEF20001F0230B70072190601160704745
:108CA00090F83C20012A4FF0020236D010B580F82F
:108CB0003D200268D2F804E0D2F808C00C682EF01B
:108CC0007003234340F2FF74C4F20004A2425360D5
:108CD0000ADCB2F1804F13D040F20043C4F200032B
:108CE0009A420DD011E000BF42F60043C4F20103E6
:108CF0009A4205D040F60003C4F200039A4204D120
:108D000049682CF08003194391600121002280F80A
:108D10003D1080F83C20BDE8104010467047000030
:108D2000002804BF0120704710B590F83D1031B9FC
:108D3000002180F83C10044600F070F82046022123
:108D400080F83D10016840F2FF740B68C4F2000423
:108D500042F6004CA142C4F2010C15DCB1F1804F87
:108D60001AD040F20042C4F20002914214D0A14253
:108D700018DCB1F1804F1DD040F20042C4F2000275
:108D8000914217D01AE000BF614505D040F60002BD
:108D9000C4F200029142EAD1826823F070031343C7
:108DA000A142E6DD614505D040F60002C4F20002B2
:108DB000914203D1026923F440731343846923F081
:108DC0008002D0F804E0C368224361450A60CB62A8
:108DD000C1F828E002D14269CCF8302001224A6172
:108DE0000B69DB0703D00B6923F001030B6180F8EB
:108DF000462080F83E2080F83F2080F8402080F810
:108E0000412080F8422080F8432080F8442080F8F8
:108E1000452080F83D20002010BD0000006842F68B
:108E20000041C4F20101884218BF704781B041F28D
:108E30001800C4F20200016841F40061016000689A
:108E400000F400600090009801B0704790F83D1069
:108E500001291CBF01207047022180F83D100068E5
:108E600040F2FF71C4F20001884209DCB0F1804F8A
:108E700012D040F20041C4F2000188420CD012E04E
:108E800042F60041C4F20101884205D040F60001DB
:108E9000C4F20001884206D1816801F00701062969
:108EA00004BF00207047016841F00101016000200B
:108EB0007047000090F83C20012A4FF002026CD06D
:108EC00080B580F83D20D0F800C04FF67772DCF80E
:108ED000083023EA0202CCF808200B684F2B29DC6B
:108EE0001F2B45DD202B46D0302B44D0402B40F0AB
:108EF000AF80D1F804E0C968DCF82030DCF820202D
:108F000022F00102CCF82020DCF8182022F0F00238
:108F100042EA011123F00A0242EA0E02CCF81810CC
:108F2000CCF82020DCF8081041F0470121F0300196
:108F300028E000BF6F2B33DDB3F5005F74D0B3F5CD
:108F4000805F21D0702B40F08380D1E901E3C968B4
:108F5000DCF8082043EA0E0322F47F4243EA0121B1
:108F60001143CCF80810DCF8081041F0770109E053
:108F70000BB1102B6CD1DCF8081021F070011943F3
:108F800041F00701CCF808100022012180F83D10C3
:108F9000002180F83C10BDE880401046704700BFBB
:108FA000502B21D0602B53D1D1F804E0C968DCF8F4
:108FB0002030DCF8202022F01002CCF82020DCF851
:108FC000182022F4704242EA013123F0A00242EA62
:108FD0000E12CCF81810CCF82020DCF8081041F064
:108FE000670121F01001CDE7D1F804E0C968DCF891
:108FF0002030DCF8202022F00102CCF82020DCF820
:10900000182022F0F00242EA011123F00A0242EA9B
:109010000E02CCF81810CCF82020DCF8081041F033
:10902000570121F02001ADE7D1E901E3C968DCF87F
:10903000082043EA0E0322F47F4243EA0121114350
:10904000CCF80810DCF8081041F480419AE700BF22
:1090500001229AE7002804BF0120704710B504469A
:1090600090F8410028B9002084F84000204600F024
:1090700063F8242084F841002068D4E90212C36810
:1090800023F40053C360036923F440531A4302617D
:10909000D4E904231143C268194341F20C639A4393
:1090A0001143C1604169A26921F44071114343F643
:1090B0000002C4F201029042416103D0FFF7B2FB0B
:1090C00002E000BFFFF7C2FBD4E9002319214843A7
:1090D0009900B0FBF1F048F21F5CC5F2EB1CA0FB5D
:1090E0000C314FF69C734909C0F6FF7301FB030076
:1090F000322303EB0010A0FB0C03F02000EA531016
:1091000000EB0110C3F34311084490601069202163
:1091100020F490401061506920F02A005061D0681E
:1091200040F40050D0600020606484F8411084F85E
:109130004210606310BD000070B586B040F60004B8
:10914000C4F201040068A4F5444100268842059653
:10915000CDE90366029601D006B070BD41F2180059
:10916000C4F20200416802AD41F40031416041683F
:1091700001F4003101910199016841F0040101609D
:109180000068294600F00400019001980420029034
:1091900002200390032005902046FFF7ADF8082039
:1091A000CDE90206204629460496FFF7A5F806B049
:1091B00070BD00002DE9F04381B0044690F84200F4
:1091C000202809D1884600294FF0010018BF002A45
:1091D00006D101B0BDE8F083022001B0BDE8F08304
:1091E000002022211D46606484F842102063164648
:1091F000FFF790F9A685E685A1680746B1F5805F7F
:1092000002D12069002851D046464FF00008E08D79
:1092100000284FD005F101090CE000BF406800268E
:109220006FF35F2028F8020BE08D0138E085E08DB8
:1092300000283FD020680168890617D4B9F1000FD3
:1092400022D0002D00F0CA80FFF764F9C01BA842AD
:1092500000F2BC802068C168490744BF01685FEA2A
:1092600001712FD401688906EED500BF002ED5D03C
:10927000A168B1F5805F15D009B9216991B1406845
:1092800000F07F000FE000BF01688906EED401689E
:1092900089065CBF01685FEA8161E7D401688906DD
:1092A000F2D5E3E7406806F8010BBDE70026E08D44
:1092B0000028AFD10020202184F8421001B0BDE881
:1092C000F08300BF00210091016800914068009088
:1092D000009800BF206850E8030F216820F49070C8
:1092E00041E80302BAB3206850E8030F216820F474
:1092F000907041E8030272B3206850E8030F2168C0
:1093000020F4907041E803022AB3206850E8030F6C
:10931000216820F4907041E80302002ADAD11AE0B3
:10932000206850E8050F216820F0010041E805029F
:10933000DAB1206850E8050F216820F0010041E80B
:10934000050292B1206850E8050F216820F0010065
:1093500041E805024AB1206850E8050F216820F075
:10936000010041E80502002ADAD1206B012824D14E
:10937000206850E8030F216820F0100041E8030244
:10938000DAB1206850E8030F216820F0100041E8AE
:10939000030292B1206850E8030F216820F010000A
:1093A00041E803024AB1206850E8030F216820F029
:1093B000100041E80302002ADAD1202084F842009C
:1093C000002008212063616484F8400003202021EC
:1093D00084F8421001B0BDE8F08300BFFFF79AF8AF
:1093E000F4E70000FEE700002DE9F04F85B04FF0F4
:1093F000000B41F21800CDE903BBCDE901BBC4F27B
:109400000200016840F6000841F0100101600168A7
:10941000C4F2010801F0100100910099016808F5FB
:10942000006641F0200101600168002201F0200186
:109430000091009901684FF4005741F00401016068
:10944000016801F0040100910099016841F00801F0
:10945000016000684FF4005100F00800009000988F
:109460003046FFF751F840464FF41F410022FFF706
:109470004BF808F580652846682100224FF0680AFD
:10948000FFF742F8019701AF01244FF0020930467F
:109490003946CDE9024BCDF81090FEF72DFF4FF481
:1094A0001F4001A981E8110840463946CDF81090C7
:1094B000FEF722FF28463946CDE901A4CDE903B9DC
:1094C000FEF71AFF05B0BDE8F08F000080B586B04A
:1094D00040F2A00042F600420021C2F20000C4F2B5
:1094E000010207234FF6FE7C0591CDE90311CDE97A
:1094F0000011C0E90023C0E9021CC0E90411816128
:10950000FFF70EFC002818BFFEF7DCFE4FF480507A
:10951000029040F2A000C2F2000002A9FFF7CAFCCC
:10952000002818BFFEF7CEFE40F2A000C2F20000F5
:109530006946FFF7B5FB002818BFFEF7C3FE06B06B
:1095400080BD000080B540F2E80044F20041C2F264
:109550000000C4F2000100234FF00C0C4FF4E13284
:1095600080E80E00C0E90333C0E905C3C361FFF71B
:1095700071FD002808BF80BDBDE88040FEF7A2BE97
:10958000FEE70000FEE700007047000070470000A3
:10959000FEF7C6BF4EF6085048F20001CEF20000BA
:1095A000C0F6000101607047FEE70000B0B540F66C
:1095B0000004C4F2010420464FF480710022FEF73B
:1095C000A3FF04F58065284608210022FEF79CFFD2
:1095D00020464FF400410022FEF796FF20464FF44C
:1095E00080510022FEF790FF20464FF400610022D8
:1095F000FEF78AFF20464FF480610122FEF784FFC8
:109600000120FEF765FE20464FF480610022FEF740
:109610007BFF0120FEF75CFE20464FF480710022A4
:10962000FEF772FF284608210022FEF76DFF204654
:109630004FF400410022FEF767FF20464FF48051AF
:109640000022FEF761FF20464FF400610122FEF781
:109650005BFF20464FF480610122FEF755FF012099
:10966000FEF736FE20464FF480610022FEF74CFFE5
:109670000120FEF72DFE0220BDE8B040FEF728BE17
:10968000B0B540F60004C4F2010420464FF48071E6
:109690000022FEF739FF04F58065284608210022E4
:1096A000FEF732FF20464FF400410022FEF72CFF68
:1096B00020464FF480510022FEF726FF20464FF44B
:1096C00000610022FEF720FF20464FF48061012256
:1096D000FEF71AFF0120FEF7FBFD20464FF48061E4
:1096E0000022FEF711FF0120FEF7F2FD20464FF4A5
:1096F00080710022FEF708FF284608210022FEF7AD
:1097000003FF20464FF400410022FEF7FDFE2046F5
:109710004FF480510122FEF7F7FE20464FF400611E
:109720000022FEF7F1FE20464FF480610122FEF791
:10973000EBFE0120FEF7CCFD20464FF480610022B5
:10974000FEF7E2FE0120FEF7C3FD0A20FEF7C0FD92
:1097500020464FF480710022FEF7D6FE28460821ED
:109760000022FEF7D1FE20464FF400410022FEF712
:10977000CBFE20464FF480510122FEF7C5FE204665
:109780004FF400610022FEF7BFFE20464FF48061D7
:109790000122FEF7B9FE0120FEF79AFD20464FF4A4
:1097A00080610022FEF7B0FE0120FEF791FD204609
:1097B0004FF480710022FEF7A7FE284608210122FF
:1097C000FEF7A2FE20464FF400410022FEF79CFE69
:1097D00020464FF480510022FEF796FE20464FF4BB
:1097E00000610022FEF790FE20464FF480610122C6
:1097F000FEF78AFE0120FEF76BFD20464FF48061E4
:109800000022FEF781FE0120FEF762FD0A20FEF72E
:109810005FFD20464FF480710022FEF775FE28465A
:1098200008210022FEF770FE20464FF4004100227E
:10983000FEF76AFE20464FF480510022FEF764FED8
:1098400020464FF400610022FEF75EFE20464FF4F2
:1098500080610122FEF758FE0120FEF739FD204607
:109860004FF480610022FEF74FFE0120FEF730FD2D
:1098700020464FF480710022FEF746FE284608215C
:109880000022FEF741FE20464FF400410022FEF781
:109890003BFE20464FF480510022FEF735FE204665
:1098A0004FF400610122FEF72FFE20464FF4806145
:1098B0000122FEF729FE0120FEF70AFD20464FF4A3
:1098C00080610022FEF720FE0120FEF701FD0A2044
:1098D000FEF7FEFC20464FF480710022FEF714FED6
:1098E000284608210022FEF70FFE20464FF40041D3
:1098F0000022FEF709FE20464FF480510022FEF7B9
:1099000003FE20464FF400610022FEF7FDFD2046D5
:109910004FF480610122FEF7F7FD0120FEF7D8FC2D
:1099200020464FF480610022FEF7EEFD0120FEF795
:10993000CFFC20464FF480710022FEF7E5FD28465B
:1099400008210022FEF7E0FD20464FF400410122ED
:10995000FEF7DAFD20464FF480510122FEF7D4FDD8
:1099600020464FF400610022FEF7CEFD20464FF462
:1099700080610122FEF7C8FD0120FEF7A9FC204608
:109980004FF480610022FEF7BFFD0120FEF7A0FC2E
:109990000A20FEF79DFC20464FF480710022FEF75E
:1099A000B3FD284608210122FEF7AEFD20464FF404
:1099B00000410022FEF7A8FD20464FF4805100220E
:1099C000FEF7A2FD20464FF400610022FEF79CFD49
:1099D00020464FF480610122FEF796FD0120FEF73C
:1099E00077FC20464FF480610022FEF78DFD0120B8
:1099F000FEF76EFC20464FF480710022FEF784FDD6
:109A0000284608210022FEF77FFD20464FF4004142
:109A10000022FEF779FD20464FF480510022FEF728
:109A200073FD20464FF400610022FEF76DFD2046D5
:109A30004FF480610122FEF767FD0120FEF748FC2C
:109A400020464FF480610022FEF75EFD0120FEF704
:109A50003FFC0A20FEF73CFC20464FF480710022B8
:109A6000FEF752FD284608210022FEF74DFD204654
:109A70004FF400410022FEF747FD20464FF480518D
:109A80000022FEF741FD20464FF400610022FEF760
:109A90003BFD20464FF480610122FEF735FD012099
:109AA000FEF716FC20464FF480610022FEF72CFDE5
:109AB0000120FEF70DFC20464FF480710022FEF7D6
:109AC00023FD284608210122FEF71EFD20464FF403
:109AD00000410122FEF718FD20464FF4805101227B
:109AE000FEF712FD20464FF400610122FEF70CFD47
:109AF00020464FF480610122FEF706FD0120FEF7AB
:109B0000E7FB20464FF480610022FEF7FDFC0120B8
:109B1000BDE8B040FEF7DCBB10B501280C4605D00F
:109B2000002808BF44F0800402E000BF44F0C004F5
:109B3000E0B20009002100F021FB04F00F00002139
:109B4000BDE8104000F01ABBB0B50478002C08BF87
:109B5000B0BD451EE0B20009012100F00FFB04F08A
:109B60000F00012100F00AFBAC780135002CF1D187
:109B7000B0BD000090B0FEF7E1FC06AC201D242132
:109B8000FEF738FB0220069001200A9010200B906F
:109B9000002520460D95FEF76DFE28B1EFF31080ED
:109BA00072B600BFFEE700BF0F20CDE9010501A896
:109BB0000021CDE903550595FEF756FD20B1EFF3E1
:109BC000108072B6FEE700BFFFF70EFCFFF77EFCC9
:109BD000FFF7B8FC40F2A000C2F20000FFF736F930
:109BE000FFF74EFD40F60044C4F201042046202158
:109BF0000022FEF789FC204640210122FEF784FC6A
:109C000040F2800540F2E804C2F2000540F20C0781
:109C1000C2F2000405F11006C2F2000720462946F0
:109C200010224FF0FF33FFF7C5FA284610213A46BD
:109C30001023009600F00EF8FFF7B8FC002000217A
:109C4000FFF76AFF3046FFF77FFF4FF47A70FEF7A9
:109C50003FFBE3E72DE9F04FC4B03F240DF1100EB8
:109C6000019000BFA4F13F060EEB040505F83F6C20
:109C7000A4F13E0605F83E6CA4F13D0605F83D6CE6
:109C8000A4F13C0605F83C6CA4F13B0605F83B6CDE
:109C9000A4F13A0605F83A6CA4F1390605F8396CD6
:109CA000A4F1380605F8386CA4F1370605F8376CCE
:109CB000A4F1360605F8366CA4F1350605F8356CC6
:109CC000A4F1340605F8346CA4F1330605F8336CBE
:109CD000A4F1320605F8326CA4F1310605F8316CB6
:109CE000A4F1300605F8306CA4F12F0605F82F6CAE
:109CF000A4F12E0605F82E6CA4F12D0605F82D6CA6
:109D0000A4F12C0605F82C6CA4F12B0605F82B6C9D
:109D1000A4F12A0605F82A6CA4F1290605F8296C95
:109D2000A4F1280605F8286CA4F1270605F8276C8D
:109D3000A4F1260605F8266CA4F1250605F8256C85
:109D4000A4F1240605F8246CA4F1230605F8236C7D
:109D5000A4F1220605F8226CA4F1210605F8216C75
:109D6000A4F1200605F8206CA4F11F0605F81F6C6D
:109D7000A4F11E0605F81E6CA4F11D0605F81D6C65
:109D8000A4F11C0605F81C6CA4F11B0605F81B6C5D
:109D9000A4F11A0605F81A6CA4F1190605F8196C55
:109DA000A4F1180605F8186CA4F1170605F8176C4D
:109DB000A4F1160605F8166CA4F1150605F8156C45
:109DC000A4F1140605F8146CA4F1130605F8136C3D
:109DD000A4F1120605F8126CA4F1110605F8116C35
:109DE000A4F1100605F8106CA4F10F0605F80F6C2D
:109DF000A4F10E0605F80E6CA4F10D0605F80D6C25
:109E0000A4F10C0605F80C6CA4F10B0605F80B6C1C
:109E1000A4F10A0605F80A6CA4F1090605F8096C14
:109E2000A4F1080605F8086CE61F05F8076CA61FE4
:109E300005F8066C661F05F8056C261F05F8046C0E
:109E4000E61E05F8036CA61E05F8026C661E0EF8E9
:109E50000440FF2C04F1400405F8016C7FF402AFCC
:109E60000EF1030800250027B5FBF3F61EF80540A8
:109E700006FB13562744965D0EEB050907EB060B10
:109E80005FFA8BF61EF806A06F1C0EF805A0B7FB54
:109E9000F3FA0EF806400AFB137499F80160145D9A
:109EA00006EB0B0707EB040A5FFA8AF71EF8074078
:109EB00089F80140AC1CB4FBF3FB0EF807600BFB08
:109EC000134499F80260145D06EB0A0707EB040AD5
:109ED0005FFA8AF71EF8074089F80240EC1CB4FBD1
:109EE000F3FB0EF807600BFB134418F80560145DD4
:109EF00006EB0A0707EB040A5FFA8AF41EF804B0BF
:109F000008EB050708F805B005F1040BBBFBF3FCF3
:109F10000EF804600CFB13B697F801B012F806C0F7
:109F20000BEB0A06B4445FFA8CF61EF806407C7010
:109F30006C1DB4FBF3FA0EF806B00AFB134497F855
:109F400002B012F804A00BEB0C0404EB0A0C5FFA4D
:109F50008CF41EF80460BE70AE1DB6FBF3F70EF86D
:109F600004B007FB136499F80660145D06EB0C0758
:109F700007EB040C5FFA8CF41EF8047089F8067085
:109F8000EF1DB7FBF3FA0EF804600AFB137499F89F
:109F900007A0145D0AEB0C072744FCB21EF804600E
:109FA0000835B5F5807F89F807600EF804A07FF4C6
:109FB0005BAF002900F0868001F003038A084FF0B0
:109FC000000800F08380A8EB820003904D98009376
:109FD0000130029001986FF0030300F1010C0020A2
:109FE00008F10101C9B21EF80120C1461518ECB2F2
:109FF0001EF804600EF801600EF804201EF801102F
:10A0000008F102061144C9B20CEB0302F6B21EF8C5
:10A0100001B0D4781EF806108BEA040B4C195FFAD5
:10A0200084F81EF80800029D0EF806000EF80810CD
:10A030001EF806001D44084409F10301C9B21EF8C8
:10A04000016085F803B006EB040B5FFA8BF71EF88E
:10A050000740C0B21EF8008010790EF801400EF8DB
:10A0600007601EF8011080EA08002871881909F1BC
:10A0700004015FFA81F81EF80860C0B21EF800A063
:10A0800006EB0B00C1B21EF8014057790EF80840EC
:10A090000EF801601EF8081087EA0A0731446F7154
:10A0A000C9B21EF80110927904335140039AA97184
:10A0B0001A44043294D109F1050103F10408009B0C
:10A0C000CAB23BB944B0BDE8F08F00BF0122002006
:10A0D000002BF7D01EF80270012B07EB0001CEB267
:10A0E0001EF8065001980EF802500EF806701EF881
:10A0F00002603744FFB21EF8077010F808604D98F0
:10A1000087EA060700F80870DCD0571CFFB21EF87B
:10A11000076001983144CDB21EF80540022B0EF8BD
:10A1200007400EF805601EF8077008F10105374476
:10A13000FFB21EF80770465D4D9887EA060747553F
:10A14000C0D00232D2B21EF8027001987B18DBB286
:10A150001EF8036008F102010EF802600EF80370A9
:10A160001EF80220405C3A44D2B21EF80220504051
:10A170004D9A505444B0BDE8F08F0000B0B540F6A1
:10A180000004C4F201040546CAB220464FF48071AF
:10A19000FEF7BAF9C5F3C00204F580600821FEF7A6
:10A1A000B3F9C5F3800220464FF40041FEF7ACF945
:10A1B000C5F3400220464FF48051FEF7A5F905F0A3
:10A1C000010220464FF40061FEF79EF920464FF44D
:10A1D00080610122FEF798F90120FEF779F8204608
:10A1E0004FF480610022FEF78FF90120BDE8B040F6
:10A1F000FEF76EB80000000000000000010203043A
:10A20000060708090000000001020304010202031E
:10A210000405060708090A0B0C0D0E0F10100000AC
:10A2200040A200080000002020000000508100082B
:10A2300060A20008200000201807000070810008BC
:10A24000010000001000000000127A0054686973D9
:10A2500049734153656372656500000000000000AA
:04000005080080ED82
:00000001FF
