:020000040800F2
:1000000000500020110E0008290B0008310B0008D9
:10001000390B0008410B0008490B000800000000E4
:10002000000000000000000000000000510B00086C
:100030005D0B000800000000690B0008750B00084C
:10004000590E0008590E0008590E0008590E0008F4
:10005000590E0008590E0008590E0008590E0008E4
:10006000590E0008590E0008590E0008590E0008D4
:10007000590E0008590E0008590E0008590E0008C4
:10008000590E0008590E0008590E0008590E0008B4
:10009000590E0008590E0008590E0008590E0008A4
:1000A000590E0008590E0008590E0008590E000894
:1000B000590E0008590E0008590E0008590E000884
:1000C000590E0008590E0008590E0008590E000874
:1000D000590E0008590E0008590E0008590E000864
:1000E000590E0008590E0008590E000800000000C3
:1000F0000000000000000000000000000000000000
:0C01000000000000000000005FF808F1A3
:10010C0010B5054C237833B9044B13B10448AFF345
:10011C0000800123237010BD680000200000000047
:10012C006032000808B5034B1BB103490348AFF319
:10013C00008008BD000000006C0000206032000848
:10014C000FB480B5B4B000AF0023BB6007F10C0353
:10015C00C4220021184602F0EDFB07F1DC037B60A2
:10016C0007F108037A68D7F8D810184602F0D8FBC4
:10017C0007F108014FF0FF33C822054802F04EF991
:10018C0000BFD037BD46BDE8804004B0704700BF0B
:10019C00A001002080B582B000AF0023FB710123C9
:1001AC00BB7100237B71C8220021324802F0C2FBD4
:1001BC004FF0FF3301222F492F4802F0BAF90346C2
:1001CC00BB71BB79002B02D00023FB714DE0294B96
:1001DC001B787B717B799AB24FF0FF332749264805
:1001EC0002F0A7F90346BB71BB79002B02D00023A8
:1001FC00FB713AE01F4B5B78103B062B34D801A205
:10020C0052F823F02D0200083902000845020008BC
:10021C007502000869020008510200085D0200081E
:10022C00144800F0D3F80123FB711EE0114800F0D4
:10023C000BF90123FB7118E00E4800F037F901238C
:10024C00FB7112E00B4800F0CFF90123FB710CE0BD
:10025C00084800F07BFA0123FB7106E00123FB71D7
:10026C00044800F0FBFA00E000BFFB7918460837A1
:10027C00BD4680BD84000020580100208500002070
:10028C0080B487B000AF786039604FF0FF337B618A
:10029C000023FB6021E07A68FB6813441B78FB7237
:1002AC00FB7A1B067A6953407B610023FB740EE0DA
:1002BC007B69002B05DA7B695A000D4B53407B613F
:1002CC0002E07B695B007B61FB7C0133FB74FB7C94
:1002DC00072BEDD9FB680133FB60FA683B689A4247
:1002EC00D9D37B6918461C37BD4680BC704700BF0C
:1002FC00B71DC10480B588B000AFF860B9607A60F2
:10030C001548FFF71DFF0023FB770023BB6100237B
:10031C00FB7500233B61B968F868FFF7B1FFB86162
:10032C0079680E48FFF70CFFB9690D48FFF708FF15
:10033C00BA697B689A4202D10123FB7701E0002362
:10034C00FB77FB7F19460748FFF7FAFEFB7F184641
:10035C002037BD4680BD00BF7832000888320008C7
:10036C009C320008B032000880B584B000AF034660
:10037C00FB710023BB81CD233B73FB797B733B7BF0
:10038C0019460748FFF7DCFE07F10C014FF0FF336D
:10039C000222044802F042F800BF1037BD4680BD6F
:1003AC00C03200085801002080B582B000AFAB23EA
:1003BC00FB71F91D4FF0FF330122034802F02EF8B8
:1003CC0000BF0837BD4680BD5801002080B586B0FF
:1003DC0000AF78601848FFF7B3FE0023FB820023C0
:1003EC003B61164BFB607B681B780133FB82FB8AFD
:1003FC00043B7A6813441B683B61FB8A043B3A69F3
:10040C0019467868FFF776FF0346012B0ED10C488E
:10041C00FFF796FE0420FFF7A7FF07F10C014FF042
:10042C00FF330422074801F0F9FF01E0FFF7BCFF9E
:10043C0000BF1837BD4680BDD43200081901010039
:10044C00EC3200085801002080B584B000AF786011
:10045C000023FB810023BB607B681B780133FB818D
:10046C00FB89043B7A6813441B68BB60FB89043B23
:10047C00BA6819467868FFF73DFF0346012B0AD18D
:10048C000520FFF771FF4FF0FF33052205490648A1
:10049C0001F0C4FF01E0FFF787FF00BF1037BD4636
:1004AC0080BD00BF000000205801002080B586B040
:1004BC0000AF78600023FB8200233B61164B1B6866
:1004CC009BB2C3F30B039BB2FB817B681B7801339C
:1004DC00FB82FB8A043B7A6813441B683B61FB8AF2
:1004EC00043B3A6919467868FFF704FF0346012B71
:1004FC000BD10220FFF738FF07F10E014FF0FF334D
:10050C000222064801F08AFF01E0FFF74DFF00BF11
:10051C001837BD4680BD00BF002004E05801002004
:10052C0080B588B000AF03460A46FB711346BB7119
:10053C000023FB770023BB7701237B770023BB6071
:10054C00BB79DC2B02D90023FB7746E0FB79DB2B54
:10055C0002D9FB79FF2B3ED1FB79FF2B06D100236F
:10056C00FB60204B7B61DC23BB6116E0FB79C3F1A4
:10057C00FF2303F57F03DC33BB77BA79BB7F9A4249
:10058C0001D9BB7FBB710023FB60FB7903F5803382
:10059C001033DB027B61BB79BB6101233B6100F053
:1005AC0029FE03467B7707F1080207F10C0311467D
:1005BC00184600F007FF03467B77BB68B3F1FF3F9B
:1005CC0002D10323FB7701E00223FB7700F038FE16
:1005DC0003467B7701E00223FB77FB7F184620372D
:1005EC00BD4680BD0080000880B586B000AF786045
:1005FC000023FB8200233B610223FB737B681B7887
:10060C000133FB82FB8A043B7A6813441B683B6111
:10061C00FB8A043B3A6919467868FFF76BFE034680
:10062C00012B17D10120FFF79FFE7B6802331A784C
:10063C007B6803331B7819461046FFF771FF03469E
:10064C00FB7307F10F014FF0FF330122044801F057
:10065C00E5FE01E0FFF7A8FE00BF1837BD4680BDE0
:10066C005801002080B485B000AF78600023FB7384
:10067C007B68094A934206D37B68084A934202D8A6
:10068C000123FB7301E00023FB73FB7B184614373B
:10069C00BD4680BC704700BF0080000800F807080A
:1006AC00B0B586B000AFF860B9601346FB8001238B
:1006BC00FB750023BB750023BB8200F09BFD03463A
:1006CC00FB75FB7D002B02D00023BB7523E00023C0
:1006DC00BB821CE0BA8ABB68D118BB8AFA68134487
:1006EC001B889BB200221C46154622462B46012035
:1006FC0000F010FD0346FB75FB7D002B02D00023A0
:10070C00BB7508E00123BB75BB8A0233BB82BA8A76
:10071C00FB889A42DED3BB7D012B0FD1FB7D002BD6
:10072C000CD100F08DFD0346FB75FB7D002B02D038
:10073C000023BB7504E00123BB7501E00023BB75EE
:10074C00BB7D18461837BD46B0BD000080B586B0DD
:10075C0000AF78600023FB8200233B610023FB6029
:10076C000023FB720023BB7200237B727B681B7817
:10077C000133FB82FB8A043B7A6813441B683B61A0
:10078C00FB8A043B3A6919467868FFF7B3FD0346C8
:10079C00012B2FD10120FFF7E7FD7B68D3F8023046
:1007AC00FB607B689B79FB72F868FFF75BFF034685
:1007BC00BB72BB7A012B12D17B680733FA7A92B2E7
:1007CC00F9681846FFF76CFF03467B7207F10901C5
:1007DC004FF0FF3301220A4801F020FE0CE0002309
:1007EC00BB7207F10A014FF0FF330122044801F0FC
:1007FC0015FE01E0FFF7D8FD00BF1837BD4680BDE0
:10080C005801002080B586B000AF7860002220210E
:10081C000F4801F0BFF87B681B687B617B68043371
:10082C001B683B613B69FB607B69BB60BB6883F306
:10083C00088800BF074801F0BFFD074801F0BCFD68
:10084C0001F0C0F8FB68984700BF1837BD4680BD63
:10085C00000C014058010020A001002080B586B09A
:10086C0000AF78600023FB8200233B610023FB6018
:10087C000023FB727B681B780133FB82FB8A043BF1
:10088C007A6813441B683B61FB8A043B3A6919463E
:10089C007868FFF72FFD0346012B25D10120FFF7C8
:1008AC0063FD7B68D3F80230FB60F868FFF7DAFE73
:1008BC000346FB72FB7A012B0BD107F10B014FF0B6
:1008CC00FF3301220B4801F0A9FDF868FFF79AFFEE
:1008DC000CE00023FB7207F10B014FF0FF330122F8
:1008EC00044801F09BFD01E0FFF75EFD00BF1837E7
:1008FC00BD4680BD5801002080B500AF064B074AAD
:10090C001A60054800F0E9FB0346002B01D000F00B
:10091C00CCF800BF80BD00BF4C010020003002406D
:10092C0080B485B000AF78607B681B68094A93423D
:10093C000BD1094B5B69084A43F040035361064BEA
:10094C005B6903F04003FB60FB6800BF1437BD46D6
:10095C0080BC7047003002400010024080B588B067
:10096C0000AF07F1100300221A605A609A60DA6037
:10097C001D4B9B691C4A43F0200393611A4B9B69E6
:10098C0003F02003FB60FB68174B9B69164A43F08E
:10099C0004039361144B9B6903F00403BB60BB68B5
:1009AC00114B9B69104A43F0080393610E4B9B69F2
:1009BC0003F008037B607B68002260210B4800F089
:1009CC00E9FF60233B6101237B610023BB610223B0
:1009DC00FB6107F110031946044800F09BFD00BFB2
:1009EC002037BD4680BD00BF00100240000C014006
:1009FC0080B500AF00F02CFA00F01CF8FFF7AEFF4A
:100A0C00FFF77AFF00F0F2F800F01AF90748FFF749
:100A1C0097FB00224021064800F0BCFF0122202158
:100A2C00034800F0B7FFFFF7B5FBFCE70433000801
:100A3C00000C014080B590B000AF07F118032822DC
:100A4C000021184601F076FF3B1D00221A605A6007
:100A5C009A60DA601A610223BB610123BB62102326
:100A6C00FB6200237B6307F11803184601F044F87E
:100A7C000346002B01D000F018F80F237B600023F5
:100A8C00BB600023FB6000233B6100237B613B1DAB
:100A9C000021184601F0B2FA0346002B01D000F0F9
:100AAC0004F800BF4037BD4680BD80B400AF72B6BD
:100ABC0000BF00BFFDE7000080B485B000AF154B50
:100ACC009B69144A43F001039361124B9B6903F039
:100ADC000103BB60BB680F4BDB690E4A43F08053CC
:100AEC00D3610C4BDB6903F080537B607B680A4B52
:100AFC005B68FB60FB6823F0E063FB60FB6843F022
:100B0C008063FB60044AFB68536000BF1437BD462A
:100B1C0080BC7047001002400000014080B400AF60
:100B2C0000BFFDE780B400AF00BFFDE780B400AFAD
:100B3C0000BFFDE780B400AF00BFFDE780B400AF9D
:100B4C0000BFFDE780B400AF00BFBD4680BC70475E
:100B5C0080B400AF00BFBD4680BC704780B400AF0E
:100B6C0000BFBD4680BC704780B500AF00F0B6F941
:100B7C0000BF80BD80B586B000AF7860144A154BBD
:100B8C00D31A7B617B693B61134B1B68002B02D131
:100B9C00114B124A1A60104B1A687B6813443A695D
:100BAC009A4207D201F0CEFE03460C221A604FF097
:100BBC00FF3309E0084B1B68FB60074B1A687B6826
:100BCC001344054A1360FB6818461837BD4680BDB0
:100BDC0000500020000400005401002058030020A5
:100BEC0080B400AF00BFBD4680BC704780B500AF7D
:100BFC00114B124A1A60104B4FF4E1325A600E4BF3
:100C0C0000229A600C4B0022DA600B4B00221A6116
:100C1C00094B0C225A61084B00229A61064B0022A8
:100C2C00DA61054801F078FB0346002B01D0FFF791
:100C3C003CFF00BF80BD00BF5801002000440040B5
:100C4C0080B500AF114B124A1A60104B4FF4E132D1
:100C5C005A600E4B00229A600C4B0022DA600B4B50
:100C6C0000221A61094B0C225A61084B00229A612E
:100C7C00064B0022DA61054801F04EFB0346002BBF
:100C8C0001D0FFF712FF00BF80BD00BFA001002004
:100C9C000048004080B58AB000AF786007F11803B7
:100CAC0000221A605A609A60DA607B681B68374AC7
:100CBC00934230D1364BDB69354A43F40033D36170
:100CCC00334BDB6903F400337B617B69304B9B69ED
:100CDC002F4A43F0040393612D4B9B6903F00403EB
:100CEC003B613B690423BB610223FB6103237B62F1
:100CFC0007F118031946274800F00CFC0823BB61C8
:100D0C000023FB6100233B6207F1180319462148BD
:100D1C0000F000FC36E07B681B681F4A934231D11F
:100D2C001B4BDB691A4A43F48023D361184BDB69F4
:100D3C0003F48023FB60FB68154B9B69144A43F05A
:100D4C0008039361124B9B6903F00803BB60BB68FB
:100D5C004FF48063BB610223FB6103237B6207F1C9
:100D6C00180319460D4800F0D5FB4FF40063BB6126
:100D7C000023FB6100233B6207F118031946074867
:100D8C0000F0C8FB00BF2837BD4680BD00440040C2
:100D9C00001002400008014000480040000C0140D7
:100DAC0080B582B000AF78607B681B68104A9342B4
:100DBC000AD1104BDB690F4A23F40033D3610C21A9
:100DCC000D4800F02BFD0FE07B681B680B4A93422B
:100DDC000AD1084BDB69074A23F48023D3614FF413
:100DEC004061074800F01AFD00BF0837BD4680BDC2
:100DFC000044004000100240000801400048004040
:100E0C00000C0140FFF7ECFE0B480C490C4A002388
:100E1C0002E0D458C4500433C4188C42F9D3094AA4
:100E2C00094C002301E013600432A242FBD301F011
:100E3C008FFDFFF7DDFD70470000002064000020EF
:100E4C00783300086800002058030020FEE70000FB
:100E5C0080B500AF084B1B68074A43F010031360C2
:100E6C00032000F007F90F2000F008F8FFF724FE2C
:100E7C000023184680BD00BF0020024080B582B020
:100E8C0000AF7860124B1A68124B1B7819464FF45E
:100E9C007A73B3FBF1F3B2FBF3F3184600F011F9DC
:100EAC000346002B01D001230EE07B680F2B0AD8E0
:100EBC00002279684FF0FF3000F0E7F8064A7B68B3
:100ECC001360002300E0012318460837BD4680BD9F
:100EDC0008000020100000200C00002080B400AF9F
:100EEC00054B1B781A46054B1B681344034A1360C9
:100EFC0000BFBD4680BC704710000020E8010020F8
:100F0C0080B400AF024B1B681846BD4680BC7047CE
:100F1C00E801002080B485B000AF78607B6803F0F6
:100F2C000703FB600C4BDB68BB60BA684FF6FF0332
:100F3C001340BB60FB681A02BB68134343F0BF63EA
:100F4C0043F40033BB60044ABB68D36000BF143762
:100F5C00BD4680BC704700BF00ED00E080B400AF20
:100F6C00044BDB681B0A03F007031846BD4680BC24
:100F7C00704700BF00ED00E080B483B000AF0346C3
:100F8C003960FB7197F90730002B0ADB3B68DAB24A
:100F9C000C4997F907301201D2B20B4483F80023A5
:100FAC000AE03B68DAB20849FB7903F00F03043B13
:100FBC001201D2B20B441A7600BF0C37BD4680BC6E
:100FCC00704700BF00E100E000ED00E080B489B0A4
:100FDC0000AFF860B9607A60FB6803F00703FB614F
:100FEC00FB69C3F10703042B28BF0423BB61FB6916
:100FFC000433062B02D9FB69033B00E000237B6121
:10100C004FF0FF32BB6902FA03F3DA43BB681A40B4
:10101C007B699A404FF0FF317B6901FA03F3D943A6
:10102C007B680B40134318462437BD4680BC704781
:10103C0080B582B000AF78607B68013BB3F1807FF4
:10104C0001D301230FE00A4A7B68013B53600F2157
:10105C004FF0FF30FFF790FF054B00229A60044BD6
:10106C0007221A60002318460837BD4680BD00BF12
:10107C0010E000E080B582B000AF78607868FFF7D0
:10108C0049FF00BF0837BD4680BD80B586B000AFB4
:10109C000346B9607A60FB7300237B61FFF75EFF48
:1010AC0078617A68B9687869FFF790FF024697F91A
:1010BC000F3011461846FFF75FFF00BF1837BD46CB
:1010CC0080BD80B582B000AF78607868FFF7B0FF64
:1010DC00034618460837BD4680BD80B582B000AFC8
:1010EC0078607B68002B01D101230EE07B685B7973
:1010FC00DBB2002B05D17B6800221A717868FFF7F0
:10110C000FFC7B6801225A71002318460837BD4634
:10111C0080BD0000F0B587B000AFF860B960C7E9DA
:10112C0000230123FB750023BB7500237B752F4B1C
:10113C001B7E012B01D1022354E02C4B01221A7689
:10114C004CF2503000F0A8F80346FB75FB7D002BE9
:10115C0044D1FB68012B02D101237B7507E0FB68AE
:10116C00022B02D102237B7501E004237B75002343
:10117C00BB752DE0BB7D5A00BB6802EB030CBB7D3D
:10118C001901D7E90023C1F12006A1F1200022FAB0
:10119C0001F403FA06F6344323FA00F0044323FA6D
:1011AC0001F5A3B21946604600F05AF84CF25030E3
:1011BC0000F072F80346FB750D4B1B690C4A23F0CB
:1011CC0001031361FB7D002B07D1BB7D0133BB7584
:1011DC00BA7D7B7D9A42CDD300E000BF034B002249
:1011EC001A76FB7D18461C37BD46F0BDF001002079
:1011FC000020024080B483B000AF0023FB710D4B84
:10120C001B6903F08003002B0DD00A4B0A4A5A606D
:10121C00084B0A4A5A60074B1B6903F08003002BEA
:10122C0001D00123FB71FB7918460C37BD4680BCFD
:10123C00704700BF0020024023016745AB89EFCD0A
:10124C0080B400AF054B1B69044A43F08003136163
:10125C0000231846BD4680BC704700BF00200240EA
:10126C0080B483B000AF78600B467B80084B0022C3
:10127C00DA61084B1B69074A43F0010313617B6871
:10128C007A881A8000BF0C37BD4680BC704700BFFF
:10129C00F00100200020024080B584B000AF7860DF
:1012AC00FFF72EFEF86010E07B68B3F1FF3F0CD027
:1012BC007B68002B07D0FFF723FE0246FB68D31A8E
:1012CC007A689A4201D2032325E0154BDB6803F0C0
:1012DC000103002BE8D1124BDB6803F02003002B39
:1012EC0002D00F4B2022DA600D4BDB6803F01003A9
:1012FC00002B0BD10A4BDB6903F00103002B05D14A
:10130C00074BDB6803F00403002B03D000F00AF852
:10131C00012300E0002318461037BD4680BD00BFF6
:10132C000020024080B483B000AF00237B60234BCD
:10133C00DB6803F01003002B09D0214BDB6943F071
:10134C0002031F4AD3617B6843F010037B601B4B85
:10135C00DB6803F00403002B09D0194BDB6943F065
:10136C000103174AD3617B6843F004037B60134B82
:10137C00DB6903F00103002B0BD0114BDB6943F04D
:10138C0004030F4AD3610D4BDB690C4A23F00103B4
:10139C00D3617B6840F20112934206D1074BDB69A3
:1013AC00064A23F00103D36102E0044A7B68D36050
:1013BC0000BF0C37BD4680BC704700BF0020024008
:1013CC00F001002080B584B000AF78603960012353
:1013DC00FB730023BB602F4B1B7E012B01D102231F
:1013EC0053E02C4B01221A767B681B68022B16D11A
:1013FC004CF25030FFF750FF0346002B41D1012037
:10140C0000F04CF84CF25030FFF746FF0346FB73EC
:10141C00214B1B69204A23F00403136131E04CF289
:10142C005030FFF739FF0346002B2AD13B684FF0B1
:10143C00FF321A607B689B68BB6019E0B86800F0EB
:10144C0049F84CF25030FFF727FF0346FB73124B61
:10145C001B69114A23F002031361FB7B002B03D0A1
:10146C003B68BA681A600CE0BB6803F58063BB602C
:10147C007B68DB689A027B689B681344BA689A4263
:10148C00DCD3044B00221A76FB7B18461037BD4682
:10149C0080BD00BFF00100200020024080B483B06A
:1014AC0000AF7860094B0022DA61094B1B69084ACE
:1014BC0043F004031361064B1B69054A43F04003D8
:1014CC00136100BF0C37BD4680BC7047F001002093
:1014DC000020024080B483B000AF78600B4B002238
:1014EC00DA610B4B1B690A4A43F002031361084A89
:1014FC007B685361064B1B69054A43F0400313613B
:10150C0000BF0C37BD4680BC704700BFF001002007
:10151C000020024080B48BB000AF786039600023AB
:10152C007B6200233B6269E101227B6A02FA03F3CE
:10153C00FB613B681B68FA691340BB61BA69FB69C4
:10154C009A4240F058813B685B689A4A93425ED05D
:10155C00984A934275D8984A934258D0964A9342E7
:10156C006FD8964A934252D0944A934269D8944A7F
:10157C0093424CD0924A934263D8924A934246D0BB
:10158C00904A93425DD8122B2AD8122B59D801A21B
:10159C0052F823F01B160008F51500080716000872
:1015AC00491600084F1600084F1600084F16000881
:1015BC004F1600084F1600084F1600084F1600086B
:1015CC004F1600084F1600084F1600084F1600085B
:1015DC004F1600084F160008FD15000811160008DC
:1015EC00794A934213D02CE03B68DB683B6229E0DC
:1015FC003B68DB6804333B6224E03B68DB68083300
:10160C003B621FE03B68DB680C333B621AE03B68D3
:10161C009B68002B02D104233B6213E03B689B6860
:10162C00012B05D108233B627B68FA691A6109E03A
:10163C0008233B627B68FA695A6103E000233B6232
:10164C0000E000BFBB69FF2B01D87B6801E07B6821
:10165C0004337B61BB69FF2B02D87B6A9B0002E0E1
:10166C007B6A083B9B003B617B691A680F213B69D5
:10167C0001FA03F3DB431A40396A3B6901FA03F3BD
:10168C001A437B691A603B685B6803F08053002B3C
:10169C0000F0B1804D4B9B694C4A43F001039361C0
:1016AC004A4B9B6903F00103BB60BB68484A7B6AE9
:1016BC009B08023352F82330FB607B6A03F0030370
:1016CC009B000F2202FA03F3DB43FA681340FB6022
:1016DC007B68404A934213D07B683F4A93420DD0BB
:1016EC007B683E4A934207D07B683D4A934201D1C6
:1016FC00032306E0042304E0022302E0012300E0BC
:10170C0000237A6A02F0030292009340FA681343B2
:10171C00FB602F497B6A9B080233FA6841F823204F
:10172C003B685B6803F48013002B06D02D4B9A6842
:10173C002C49BB6913438B6006E02A4B9A68BB6942
:10174C00DB43284913408B603B685B6803F4001350
:10175C00002B06D0234BDA682249BB691343CB60BC
:10176C0006E0204BDA68BB69DB431E491340CB60B3
:10177C003B685B6803F40033002B06D0194B5A68A6
:10178C001849BB6913434B6006E0164B5A68BB699A
:10179C00DB43144913404B603B685B6803F48033B4
:1017AC00002B21D00F4B1A680E49BB6913430B60F9
:1017BC0021E000BF000032100000311000002210A8
:1017CC000000211000001210000011100010024047
:1017DC000000014000080140000C014000100140D5
:1017EC0000140140000401400B4B1A68BB69DB4339
:1017FC00094913400B607B6A01337B623B681A68B2
:10180C007B6A22FA03F3002B7FF48EAE00BF00BF7D
:10181C002C37BD4680BC70470004014080B489B0B1
:10182C0000AF786039600023FB619AE00122FB690C
:10183C0002FA03F33A681340BB61BB69002B00F05A
:10184C008D804E4AFB699B08023352F823307B6132
:10185C00FB6903F003039B000F2202FA03F37A697E
:10186C0013407B617B68464A934213D07B68454AA0
:10187C0093420DD07B68444A934207D07B68434A1D
:10188C00934201D1032306E0042304E0022302E087
:10189C00012300E00023FA6902F003029200934056
:1018AC007A699A4232D13A4B1A68BB69DB433849A0
:1018BC0013400B60364B5A68BB69DB433449134009
:1018CC004B60334BDA68BB69DB4331491340CB6067
:1018DC002F4B9A68BB69DB432D4913408B60FB6926
:1018EC0003F003039B000F2202FA03F37B61234AEC
:1018FC00FB699B08023352F823107B69DA431F48BB
:10190C00FB699B080A40023340F82320BB69FF2B7C
:10191C0001D87B6801E07B6804333B61BB69FF2B1A
:10192C0002D8FB699B0002E0FB69083B9B00FB6053
:10193C003B691A680F21FB6801FA03F3DB431A4079
:10194C000421FB6801FA03F31A433B691A607B68B4
:10195C00DA68BB69DB431A407B68DA60FB690133E8
:10196C00FB613A68FB6922FA03F3002B7FF45EAF4C
:10197C0000BF00BF2437BD4680BC7047000001404B
:10198C0000080140000C014000100140001401400F
:10199C000004014080B483B000AF78600B467B80BC
:1019AC0013467B707B78002B03D07A887B681A6196
:1019BC0003E07B881A047B681A6100BF0C37BD46B4
:1019CC0080BC704780B582B000AFFFF799FA7860A1
:1019DC00454B1B68444A43F00103136008E0FFF7D2
:1019EC008FFA02467B68D31A022B01D9032377E0C6
:1019FC003D4B1B6803F00203002BF0D03A4B1B68E5
:101A0C0023F0F803384A43F080031360FFF778FAA9
:101A1C007860354B00225A600AE0FFF771FA0246F3
:101A2C007B68D31A41F28832934201D9032357E0E1
:101A3C002D4B5B6803F00C03002BEED12B4B2C4A87
:101A4C001A602C4B1B681846FFF718FA0346002B3C
:101A5C0001D0012344E0FFF753FA7860224B1B6856
:101A6C00214A23F08073136008E0FFF749FA02461D
:101A7C007B68D31A022B01D9032331E01A4B1B6864
:101A8C0003F00073002BF0D1174B00225A60FFF7C4
:101A9C0037FA7860144B1B68134A23F41023136035
:101AAC0008E0FFF72DFA02467B68D31A642B01D9A4
:101ABC00032315E00C4B1B6803F40033002BF0D10F
:101ACC00094B1B68084A23F480231360064B5B6A9E
:101ADC00054A43F080735362034B00229A60002343
:101AEC0018460837BD4680BD001002400800002093
:101AFC0000127A000C00002080B586B000AF786030
:101B0C007B68002B01D1012372E27B681B6803F018
:101B1C000103002B00F08780924B5B6803F00C03F1
:101B2C00042B0CD08F4B5B6803F00C03082B12D1E9
:101B3C008C4B5B6803F48033B3F5803F0BD1894B3E
:101B4C001B6803F40033002B6CD07B685B68002BA4
:101B5C0068D101234CE27B685B68B3F5803F06D10A
:101B6C00804B1B687F4A43F4803313602EE07B6804
:101B7C005B68002B0CD17B4B1B687A4A23F48033B7
:101B8C001360784B1B68774A23F4802313601DE0A5
:101B9C007B685B68B3F5A02F0CD1724B1B68714A44
:101BAC0043F4802313606F4B1B686E4A43F48033FD
:101BBC0013600BE06B4B1B686A4A23F48033136091
:101BCC00684B1B68674A23F4802313607B685B684F
:101BDC00002B13D0FFF794F9386108E0FFF790F968
:101BEC0002463B69D31A642B01D9032300E25D4BF7
:101BFC001B6803F40033002BF0D014E0FFF780F9DE
:101C0C00386108E0FFF77CF902463B69D31A642B74
:101C1C0001D90323ECE1534B1B6803F40033002B75
:101C2C00F0D100E000BF7B681B6803F00203002BBF
:101C3C0063D04C4B5B6803F00C03002B0BD0494B6F
:101C4C005B6803F00C03082B1CD1464B5B6803F458
:101C5C008033002B16D1434B1B6803F00203002B7F
:101C6C0005D07B681B69012B01D00123C0E13D4BE2
:101C7C001B6823F0F8027B685B69DB00394913436E
:101C8C000B603AE07B681B69002B20D0364B01229D
:101C9C001A60FFF735F9386108E0FFF731F90246B1
:101CAC003B69D31A022B01D90323A1E12D4B1B68ED
:101CBC0003F00203002BF0D02A4B1B6823F0F80230
:101CCC007B685B69DB00274913430B6015E0264BEF
:101CDC0000221A60FFF714F9386108E0FFF710F9D9
:101CEC0002463B69D31A022B01D9032380E11D4B19
:101CFC001B6803F00203002BF0D17B681B6803F018
:101D0C000803002B3AD07B689B69002B19D0174B2A
:101D1C0001221A60FFF7F4F8386108E0FFF7F0F8D9
:101D2C0002463B69D31A022B01D9032360E10D4B08
:101D3C005B6A03F00203002BF0D0012000F0CEFA16
:101D4C001CE00A4B00221A60FFF7DAF838610FE04A
:101D5C00FFF7D6F802463B69D31A022B08D90323A6
:101D6C0046E100BF001002400000424280044242A3
:101D7C00924B5B6A03F00203002BE9D17B681B6872
:101D8C0003F00403002B00F0A6800023FB758B4BA3
:101D9C00DB6903F08053002B0DD1884BDB69874A3C
:101DAC0043F08053D361854BDB6903F08053BB60F8
:101DBC00BB680123FB75824B1B6803F48073002BFB
:101DCC0018D17F4B1B687E4A43F480731360FFF776
:101DDC0097F8386108E0FFF793F802463B69D31A8D
:101DEC00642B01D9032303E1754B1B6803F4807347
:101DFC00002BF0D07B68DB68012B06D16F4B1B6A84
:101E0C006E4A43F0010313622DE07B68DB68002B04
:101E1C000CD16A4B1B6A694A23F001031362674BAE
:101E2C001B6A664A23F0040313621CE07B68DB68C0
:101E3C00052B0CD1614B1B6A604A43F004031362FF
:101E4C005E4B1B6A5D4A43F0010313620BE05B4B74
:101E5C001B6A5A4A23F001031362584B1B6A574AF8
:101E6C0023F0040313627B68DB68002B15D0FFF7AB
:101E7C0047F838610AE0FFF743F802463B69D31A8A
:101E8C0041F28832934201D90323B1E04B4B1B6AD8
:101E9C0003F00203002BEED014E0FFF731F83861A9
:101EAC000AE0FFF72DF802463B69D31A41F288325B
:101EBC00934201D903239BE0404B1B6A03F00203BE
:101ECC00002BEED1FB7D012B05D13C4BDB693B4A52
:101EDC0023F08053D3617B68DB69002B00F0878093
:101EEC00364B5B6803F00C03082B61D07B68DB6915
:101EFC00022B46D1334B00221A60FFF701F83861F0
:101F0C0008E0FEF7FDFF02463B69D31A022B01D90C
:101F1C0003236DE0294B1B6803F00073002BF0D1F9
:101F2C007B681B6AB3F5803F08D1244B5B6823F4B4
:101F3C0000327B689B68214913434B601F4B5B68E5
:101F4C0023F474127B68196A7B685B6A0B431B4928
:101F5C0013434B601B4B01221A60FEF7D1FF386113
:101F6C0008E0FEF7CDFF02463B69D31A022B01D9DC
:101F7C0003233DE0114B1B6803F00073002BF0D0E2
:101F8C0035E0104B00221A60FEF7BAFF386108E00A
:101F9C00FEF7B6FF02463B69D31A022B01D9032385
:101FAC0026E0064B1B6803F00073002BF0D11EE0FB
:101FBC007B68DB69012B07D1012319E0001002407B
:101FCC0000700040600042420B4B5B68FB60FB689A
:101FDC0003F480327B681B6A9A4206D1FB6803F4D7
:101FEC0070127B685B6A9A4201D0012300E00023E7
:101FFC0018461837BD4680BD0010024080B584B02D
:10200C0000AF786039607B68002B01D10123D0E0F0
:10201C006A4B1B6803F007033A689A4210D9674B66
:10202C001B6823F0070265493B6813430B60634B45
:10203C001B6803F007033A689A4201D00123B8E009
:10204C007B681B6803F00203002B20D07B681B68A5
:10205C0003F00403002B05D0594B5B68584A43F43A
:10206C00E06353607B681B6803F00803002B05D00A
:10207C00534B5B68524A43F460535360504B5B685C
:10208C0023F0F0027B689B684D4913434B607B68DF
:10209C001B6803F00103002B40D07B685B68012BAD
:1020AC0007D1474B1B6803F40033002B15D10123D8
:1020BC007FE07B685B68022B07D1414B1B6803F008
:1020CC000073002B09D1012373E03D4B1B6803F017
:1020DC000203002B01D101236BE0394B5B6823F029
:1020EC0003027B685B68364913434B60FEF708FFBD
:1020FC00F8600AE0FEF704FF0246FB68D31A41F2CF
:10210C008832934201D9032353E02D4B5B6803F0D3
:10211C000C027B685B689B009A42EBD1274B1B68D7
:10212C0003F007033A689A4210D2244B1B6823F041
:10213C00070222493B6813430B60204B1B6803F0DA
:10214C0007033A689A4201D0012332E07B681B688E
:10215C0003F00403002B08D0194B5B6823F4E062F6
:10216C007B68DB68164913434B607B681B6803F084
:10217C000803002B09D0124B5B6823F460527B6878
:10218C001B69DB000E4913434B6000F021F802463B
:10219C000B4B5B681B0903F00F030A49CB5C22FA5B
:1021AC0003F3094A1360094B1B681846FEF766FED9
:1021BC00002318461037BD4680BD00BF00200240EA
:1021CC000010024010330008080000200C00002012
:1021DC0080B487B000AF0023FB600023BB600023FA
:1021EC007B6100237B6000233B611E4B5B68FB60C3
:1021FC00FB6803F00C03042B02D0082B03D027E060
:10220C00194B3B6127E0FB689B0C03F00F03174A4B
:10221C00D35C7B60FB6803F48033002B10D0114B34
:10222C005B685B0C03F00103114AD35CBB607B68F9
:10223C000D4A03FB02F2BB68B2FBF3F37B6104E0D3
:10224C007B680C4A02FB03F37B617B693B6102E018
:10225C00054B3B6100BF3B6918461C37BD4680BC33
:10226C00704700BF0010024000127A0028330008AB
:10227C003833000800093D0080B400AF024B1B68E6
:10228C001846BD4680BC70470800002080B500AFE2
:10229C00FFF7F2FF0246054B5B681B0A03F00703CE
:1022AC000349CB5C22FA03F3184680BD00100240B0
:1022BC002033000880B500AFFFF7DEFF0246054B68
:1022CC005B68DB0A03F007030349CB5C22FA03F3D8
:1022DC00184680BD001002402033000880B485B041
:1022EC0000AF78600A4B1B680A4AA2FB03235B0A07
:1022FC007A6802FB03F3FB6000BFFB685A1EFA60AE
:10230C00002BF9D100BF00BF1437BD4680BC70470D
:10231C0008000020D34D621080B582B000AF786009
:10232C007B68002B01D1012342E07B6893F841309C
:10233C00DBB2002B06D17B68002283F84020786842
:10234C00FEF7A8FC7B68242283F841207B681B687D
:10235C00DA687B681B6822F40052DA60786800F057
:10236C003BFA7B681B681A697B681B6822F49042F5
:10237C001A617B681B685A697B681B6822F02A0209
:10238C005A617B681B68DA687B681B6842F40052F0
:10239C00DA607B6800225A647B68202283F8412033
:1023AC007B68202283F842207B6800225A6300233A
:1023BC0018460837BD4680BD80B582B000AF786046
:1023CC007B68002B01D1012324E07B68242283F855
:1023DC0041207B681B68DA687B681B6822F400521A
:1023EC00DA607868FEF7DCFC7B6800225A647B6854
:1023FC00002283F841207B68002283F842207B680E
:10240C0000221A637B6800225A637B68002283F8DF
:10241C004020002318460837BD4680BD80B58AB0E1
:10242C0002AFF860B9603B601346FB8000237B6110
:10243C00FB6893F84130DBB2202B75D1BB68002BC5
:10244C0002D0FB88002B01D101236EE0FB68002237
:10245C005A64FB68212283F84120FEF751FD786114
:10246C00FB68FA889A84FB68FA88DA84FB689B68B4
:10247C00B3F5805F08D1FB681B69002B04D10023E6
:10248C00FB61BB68BB6103E0BB68FB610023BB6104
:10249C002EE03B6800937B6900228021F86800F0F5
:1024AC00DFF80346002B05D0FB68202283F841207F
:1024BC0003233AE0FB69002B0BD1BB691B881A463E
:1024CC00FB681B68C2F308025A60BB690233BB612C
:1024DC0007E0FB691A78FB681B685A60FB690133DB
:1024EC00FB61FB68DB8C9BB2013B9AB2FB68DA8424
:1024FC00FB68DB8C9BB2002BCBD13B6800937B69D8
:10250C0000224021F86800F0ABF80346002B05D000
:10251C00FB68202283F84120032306E0FB6820227D
:10252C0083F84120002300E0022318462037BD46E3
:10253C0080BD80B58AB002AFF860B9603B601346CD
:10254C00FB8000237B61FB6893F84230DBB2202BCD
:10255C0040F08180BB68002B02D0FB88002B01D19E
:10256C00012379E0FB6800225A64FB68222283F87D
:10257C004220FB6800221A63FEF7C2FC7861FB68FC
:10258C00FA889A85FB68FA88DA85FB689B68B3F54C
:10259C00805F08D1FB681B69002B04D10023FB6111
:1025AC00BB68BB6103E0BB68FB610023BB6147E018
:1025BC003B6800937B6900222021F86800F050F8FA
:1025CC000346002B05D0FB68202283F8422003230E
:1025DC0042E0FB69002B0CD1FB681B685B689BB26B
:1025EC00C3F308039AB2BB691A80BB690233BB619F
:1025FC001FE0FB689B68B3F5805F07D0FB689B68A6
:10260C00002B0AD1FB681B69002B06D1FB681B68E9
:10261C005B68DAB2FB691A7008E0FB681B685B68E0
:10262C00DBB203F07F03DAB2FB691A70FB6901338A
:10263C00FB61FB68DB8D9BB2013B9AB2FB68DA85D0
:10264C00FB68DB8D9BB2002BB2D1FB68202283F898
:10265C004220002300E0022318462037BD4680BDEF
:10266C0080B586B000AFF860B9603B601346FB7173
:10267C003BE03B6AB3F1FF3F37D0FEF741FC02462B
:10268C003B68D31A3A6A9A4202D33B6A002B01D1B7
:10269C0003233AE0FB681B68DB6803F00403002BA0
:1026AC0023D0BB68802B20D0BB68402B1DD0FB688F
:1026BC001B681B6803F00803082B16D100237B61F1
:1026CC00FB681B681B687B61FB681B685B687B6134
:1026DC007B69F86800F01DF8FB6808225A64FB68F7
:1026EC00002283F8402001230FE0FB681B681A6866
:1026FC00BB681340BA689A420CBF01230023DBB2BB
:10270C001A46FB799A42B4D0002318461837BD46B6
:10271C0080BD80B495B000AF78607B681B680C33CB
:10272C007B637B6B53E8003F3B633B6B23F4907301
:10273C00FB647B681B680C33FA6C3A64FB63F96BC3
:10274C003A6C41E80023BB63BB6B002BE5D17B6883
:10275C001B6814333B623B6A53E8003FFB61FB6927
:10276C0023F00103BB647B681B681433BA6CFA62F8
:10277C00BB62B96AFA6A41E800237B627B6A002B70
:10278C00E5D17B681B6B012B19D17B681B680C3363
:10279C00FB60FB6853E8003FBB60BB6823F0100391
:1027AC007B647B681B680C337A6CBA617B617969DA
:1027BC00BA6941E800233B613B69002BE5D17B689A
:1027CC00202283F842207B6800221A6300BF543712
:1027DC00BD4680BC7047000080B584B000AF786007
:1027EC007B681B681B6923F440517B68DA687B6843
:1027FC001B680A431A617B689A687B681B691A43D9
:10280C007B685B691343BB607B681B68DB6823F4E4
:10281C00B05323F00C037A681268B9680B43D36089
:10282C007B681B685B6923F440717B689A697B68E1
:10283C001B680A435A617B681B682C4A934203D17C
:10284C00FFF738FDF86002E0FFF720FDF860FA684A
:10285C0013469B0013449A001A447B685B689B00E8
:10286C00B2FBF3F3224AA2FB03235B091901FA68BA
:10287C0013469B0013449A001A447B685B689B00C8
:10288C00B2FBF3F21A4BA3FB02035B09642000FBBF
:10289C0003F3D31A1B013233154AA2FB03235B0942
:1028AC0003F0F0031944FA6813469B0013449A0092
:1028BC001A447B685B689B00B2FBF3F20C4BA3FBE6
:1028CC0002035B09642000FB03F3D31A1B013233B0
:1028DC00074AA2FB03235B0903F00F027B681B680A
:1028EC000A449A6000BF1037BD4680BD00380140D5
:1028FC001F85EB5100B59BB0009104916FF0004126
:10290C000591029105490391694600F099F900225D
:10291C00009B1A701BB05DF804FB00BF0802FFFFA0
:10292C0013460A46014602480068FFF7E3BF00BFA2
:10293C001400002003460244934200D1704703F870
:10294C00011BF9E7014B1868704700BF1400002009
:10295C0070B500260C4D0D4C641BA410A64209D179
:10296C0000F078FC00260A4D0A4C641BA410A64209
:10297C0005D170BD55F8043B98470136EEE755F884
:10298C00043B98470136F2E77033000870330008B7
:10299C0070330008743300087047704738B505462B
:1029AC00002940D051F8043C0C1F002BB8BFE41890
:1029BC0000F0DEF81C4A136833B9636014602846D3
:1029CC00BDE8384000F0DAB8A34208D920682118D5
:1029DC008B4201BF19685B6809182160EDE71A4644
:1029EC005B680BB1A342FAD911685018A0420BD105
:1029FC0020680144501883421160E0D118685B686C
:102A0C00084410605360DAE702D90C232B60D6E738
:102A1C00206821188B4201BF19685B680918216076
:102A2C0063605460CBE738BD5403002070B50F4E83
:102A3C000C463168054611B900F0AAFB30602146FE
:102A4C00284600F0A5FB431C03D14FF0FF34204671
:102A5C0070BDC41C24F00304A042F8D0211A2846EF
:102A6C0000F096FB0130F2D1EFE700BF50030020DD
:102A7C002DE9F843CD1C25F0030508350C2D38BF86
:102A8C000C25002D064601DBA94204D90C2333602A
:102A9C000020BDE8F883DFF8D48000F069F8D8F89E
:102AAC0000301C4644BB29463046FFF7BFFF431C91
:102ABC00044658D1D8F800402746002F43D1002CAB
:102ACC004BD023683946304604EB030900F060FB19
:102ADC00814542D1216830466D1A2946FFF7A6FF81
:102AEC0001303AD023682B442360D8F800305A6860
:102AFC0062BBC8F800700FE02268521B20D40B2A6E
:102B0C0017D96119A342256018BF5960636808BFC3
:102B1C00C8F8001062514B60304600F02FF804F1F9
:102B2C000B00231D20F00700C21A1CBF1B1AA35058
:102B3C00AFE76268A3420CBFC8F800205A60EBE70D
:102B4C0023466468AEE73C467F68B6E71A465B6886
:102B5C00A342FBD100235360DEE70C2330463360E5
:102B6C0000F00CF894E70560D6E700BF5403002092
:102B7C000148FFF711BF00BF4C0300200148FFF7CD
:102B8C000CBF00BF4C0300202DE9F0471F468E6898
:102B9C008246BE420C4690460B682DD8B1F90C20EB
:102BAC0012F4906F26D06569096905EB4505A3EB16
:102BBC00010905EBD5757B1C4B446D109D4238BF4C
:102BCC001D46530527D52946FFF752FF064660B32D
:102BDC004A46216900F0FAFAA38923F4906343F082
:102BEC008003A38126614E4426603E466561A5EBB9
:102BFC000905A560BE4200D93E46324641462068D2
:102C0C0000F0ACFA0020A3689B1BA360236833443C
:102C1C002360BDE8F0872A4600F0E6FA0646002855
:102C2C00E0D150462169FFF7B9FE0C23CAF80030F9
:102C3C00A3894FF0FF3043F04003A381E9E7000084
:102C4C002DE9F04F98468B8907461B060D46144616
:102C5C009DB010D50B6973B94021FFF709FF2860AF
:102C6C00286130B90C233B604FF0FF301DB0BDE83C
:102C7C00F08F40236B610023099320238DF82930BA
:102C8C0030234FF00109CDF80C80DFF898818DF8D6
:102C9C002A3023469A4613F8012B0AB1252AF9D17A
:102CAC00BAEB040B0BD05B46224629463846FFF79D
:102CBC006BFF013000F0A780099A5A4409929AF8E8
:102CCC000030002B00F09F8000234FF0FF32CDE945
:102CDC0005230AF1010A049307938DF853301A93D4
:102CEC005446052214F8011B4E4800F061FA049A70
:102CFC00D8B9D00644BF20238DF85330110744BFF8
:102D0C002B238DF853309AF800302A2B15D05446CB
:102D1C0000204FF00A0C079A214611F8013B303B7A
:102D2C00092B4BD9B0B1079214E0A0EB080309FAB8
:102D3C0003F31343A2460493D2E7039B191D1B68AC
:102D4C000391002BBBBF5B4242F002020793079337
:102D5C00B8BF049223782E2B0AD163782A2B32D158
:102D6C00039B02341A1D1B68039243EAE373059319
:102D7C00DFF8B4A003225046217800F019FA38B1DC
:102D8C004022049BA0EB0A008240134301340493BD
:102D9C0014F8011B062225488DF8281000F008FABB
:102DAC00002836D0224B1BBB039B073323F00703B1
:102DBC0008330393099B334409936AE70C460120BB
:102DCC000CFB0232A8E700234FF00A0C1946013421
:102DDC000593204610F8012B303A092A03D9002B11
:102DEC00C6D00591C4E7044601230CFB0121F0E792
:102DFC0003AB00932A4638460E4B04A9AFF3008070
:102E0C00421C0646D6D1AB895B063FF52DAF09981F
:102E1C002CE703AB00932A463846064B04A900F076
:102E2C007DF8EDE73A3300084033000844330008DE
:102E3C0000000000952B00082DE9F0471646984637
:102E4C008A680B6907469342B8BF1346336091F802
:102E5C0043200C46DDF820900AB10133336023681F
:102E6C00990642BF336802333360256815F00605B6
:102E7C0006D104F1190AE36832689B1AAB422BDCC9
:102E8C0094F843302268003B18BF0123920630D4DB
:102E9C004146384604F14302C847013023D0236829
:102EAC00226903F00603042B14BF002533684FF08E
:102EBC00000608BFE56804F11A0408BFED1A54F8BF
:102ECC00123C08BF25EAE5759342C4BF9B1AED1866
:102EDC00B5421AD1002008E001235246414638463B
:102EEC00C847013003D14FF0FF30BDE8F087013502
:102EFC00C1E73020E11881F843005A1C94F84510C2
:102F0C002244023382F84310C2E701232246414691
:102F1C003846C8470130E6D00136D9E72DE9FF47DE
:102F2C000F7E9146782F80460C469A460C9E01F1F6
:102F3C00430207D8622F0AD8002F00F0D380582FF5
:102F4C0000F0BA8004F1420684F842703AE0A7F12E
:102F5C006303152BF6D801A151F823F0C12F0008FB
:102F6C00D52F0008512F0008512F0008512F0008B1
:102F7C00512F0008D52F0008512F0008512F0008A1
:102F8C00512F0008512F0008D7300008FF2F0008E0
:102F9C0091300008512F0008512F0008F93000081B
:102FAC00512F0008FF2F0008512F0008512F000847
:102FBC009930000833681A1D1B68326004F1420610
:102FCC0084F8423001239EE033682068191D31607B
:102FDC00060601D51D6803E04506FBD5B3F9005084
:102FEC00002D03DA2D236D4284F843300A2359480F
:102FFC0011E021683368080653F8045B02D44906D3
:10300C0048BFADB26F2F336014BF0A230823514859
:10301C00002184F843106668002EA8BF2168A660C2
:10302C00A4BF21F0040121600DB9002E4BD016462F
:10303C00B5FBF3F103FB1157C75D06F8017D2F4675
:10304C00BB420D46F4D9082B0BD12368DF0708D5FA
:10305C00236961689942DEBF302306F8013C06F112
:10306C00FF36921B22614B4621464046CDF800A00C
:10307C0003AAFFF7E1FE01304AD14FF0FF3004B054
:10308C00BDE8F087236843F020032360782732489B
:10309C0084F84570236831681F0651F8045B02D42C
:1030AC005F0648BFADB23160D90744BF43F020037F
:1030BC0023601DB11023ABE72648E9E7236823F012
:1030CC0020032360F6E71646BDE733682568181D14
:1030DC00616930602E061B6801D5196002E0680634
:1030EC00FBD51980002316462361BCE73368002109
:1030FC001A1D32601E686268304600F059F808B13B
:10310C00801B606063682361002384F84330AAE766
:10311C003246494640462369D0470130ADD023683A
:10312C009B0713D4E068039B9842B8BF1846A6E7E8
:10313C000123324649464046D04701309DD00135E7
:10314C00E36803995B1AAB42F2DCEBE7002504F170
:10315C001906F5E74B3300085C330008884210B5BC
:10316C0001EB020402D98442234607D8431EA14234
:10317C0008D011F8012B03F8012FF8E7014602449F
:10318C008A4200D110BD13F8014D02F8014DF7E74A
:10319C0038B50023054D044608462B60FDF7EAFCC4
:1031AC00431C02D12B6803B1236038BD48030020B7
:1031BC00034610B5C9B202449342184601D100200F
:1031CC0003E0047801338C42F6D110BD0A449142DD
:1031DC0000F1FF3300D1704710B511F8014B91424B
:1031EC0003F8014FF9D110BD2DE9F0418046154689
:1031FC000C4621B91146BDE8F041FFF739BC2AB99C
:10320C00FFF7CCFB00242046BDE8F08100F01AF853
:10321C008542064602D8B5EB500FF4D829464046F5
:10322C00FFF726FC07460028ECD0B5422A4621467B
:10323C0028BF3246FFF7CAFF21464046FFF7AEFBD8
:10324C003C46E0E751F8043C181F002BBCBF0B5860
:10325C00C0187047F8B500BFF8BC08BC9E46704754
:0C326C00F8B500BFF8BC08BC9E467047D7
:10327800496E73696465204352430D0A00000000DB
:10328800486F73745F435243206973203078257800
:103298000D0A00005265656D5F4352432069732033
:1032A800307825780D0A0000435243205374617426
:1032B80075732025640D0A0041434B2076616C75B7
:1032C8006520697320307825780D0A00496E736986
:1032D8006465204765742056657273696F6E0D0AC0
:1032E80000000000696E7369646520696620637276
:1032F80063207061737365640D0A0000424C2053AB
:1033080074617274200D0A000000000000000000C3
:103318000102030406070809000000000102030473
:1033280002030405060708090A0B0C0D0E0F1010FE
:103338000102232D302B2000686C4C006566674520
:103348004647003031323334353637383941424315
:1033580044454600303132333435363738396162C6
:083368006364656600000000CB
:04337000310100081F
:043374000D0100083F
:10337800101112151600000000127A00100000004B
:1033880001000000180000200000000010020020CA
:1033980078020020E0020020000000000000000089
:1033A8000000000000000000000000000000000015
:1033B8000000000000000000000000000000000005
:1033C80000000000000000000000000000000000F5
:0433D80000000000F1
:0400000508000E11D0
:00000001FF
